:020000040800F2
:1000000000000220A91A0008311A0008371A000857
:100010003D1A0008431A0008491A000800000000B1
:100020000000000000000000000000004F1A00085F
:100030005D1A0008000000006B1A0008791A000819
:10004000F91A0008F91A0008F91A0008F91A000844
:10005000F91A0008F91A0008F91A0008F91A000834
:10006000F91A0008F91A0008F91A0008F91A000824
:10007000F91A0008F91A0008F91A0008F91A000814
:10008000F91A0008F91A0008F91A0008F91A000804
:10009000F91A0008F91A0008F91A0008F91A0008F4
:1000A000F91A0008F91A0008F91A0008F91A0008E4
:1000B000F91A0008F91A0008F91A0008F91A0008D4
:1000C000F91A0008F91A0008F91A0008F91A0008C4
:1000D000F91A0008F91A0008F91A0008F91A0008B4
:1000E000F91A0008F91A0008F91A0008F91A0008A4
:1000F000F91A0008F91A0008F91A0008F91A000894
:10010000F91A0008F91A0008F91A0008F91A000883
:10011000F91A0008F91A0008F91A0008F91A000873
:10012000F91A0008F91A0008F91A0008F91A000863
:10013000F91A0008F91A0008F91A0008F91A000853
:10014000F91A0008F91A0008F91A0008F91A000843
:10015000F91A0008F91A0008F91A0008F91A000833
:10016000F91A0008F91A0008F91A0008F91A000823
:10017000F91A0008F91A0008F91A0008000000002E
:08018000F91A0008F91A000841
:1001880010B5054C237833B9044B13B10448AFF3C9
:1001980000800123237010BD2C0000200000000007
:1001A8002C39000808B5034B1BB103490348AFF3CA
:1001B800008008BD00000000300000202C39000835
:1001C80081F0004102E000BF83F0004330B54FEA00
:1001D80041044FEA430594EA050F08BF90EA020F6D
:1001E8001FBF54EA000C55EA020C7FEA645C7FEA00
:1001F800655C00F0E2804FEA5454D4EB5555B8BF23
:100208006D420CDD2C4480EA020281EA030382EA93
:10021800000083EA010180EA020281EA0303362D25
:1002280088BF30BD11F0004F4FEA01314FF4801CF8
:100238004CEA113102D0404261EB410113F0004F0A
:100248004FEA03334CEA133302D0524263EB4303C1
:1002580094EA050F00F0A780A4F10104D5F1200E5F
:100268000DDB02FA0EFC22FA05F2801841F10001BA
:1002780003FA0EF2801843FA05F359410EE0A5F18E
:1002880020050EF1200E012A03FA0EFC28BF4CF0BF
:10029800020C43FA05F3C01851EBE37101F0004575
:1002A80007D54FF0000EDCF1000C7EEB00006EEB82
:1002B8000101B1F5801F1BD3B1F5001F0CD349080C
:1002C8005FEA30004FEA3C0C04F101044FEA445263
:1002D80012F5800F80F09A80BCF1004F08BF5FEAEA
:1002E800500C50F1000041EB045141EA050130BDCA
:1002F8005FEA4C0C404141EB0101013C28BFB1F5DC
:10030800801FE9D291F0000F04BF01460020B1FA26
:1003180081F308BF2033A3F10B03B3F120020CDAF9
:100328000C3208DD02F1140CC2F10C0201FA0CF0D7
:1003380021FA02F10CE002F11402D8BFC2F1200C3C
:1003480001FA02F120FA0CFCDCBF41EA0C019040F2
:10035800E41AA2BF01EB0451294330BD6FEA04043B
:100368001F3C1CDA0C340EDC04F11404C4F1200226
:1003780020FA04F001FA02F340EA030021FA04F338
:1003880045EA030130BDC4F10C04C4F1200220FA8F
:1003980002F001FA04F340EA0300294630BD21FACD
:1003A80004F0294630BD94F0000F83F4801306BF93
:1003B80081F480110134013D4EE77FEA645C18BF87
:1003C8007FEA655C29D094EA050F08BF90EA020F1E
:1003D80005D054EA000C04BF1946104630BD91EA16
:1003E800030F1EBF0021002030BD5FEA545C05D119
:1003F8004000494128BF41F0004130BD14F5800458
:100408003CBF01F5801130BD01F0004545F0FE41CB
:1004180041F470014FF0000030BD7FEA645C1ABF00
:10042800194610467FEA655C1CBF0B46024650EA37
:10043800013406BF52EA033591EA030F41F4002163
:1004480030BD00BF90F0000F04BF0021704730B5E9
:100458004FF4806404F132044FF000054FF00001BE
:1004680050E700BF90F0000F04BF0021704730B57F
:100478004FF4806404F1320410F0004548BF404254
:100488004FF000013EE700BF42004FEAE2014FEAA9
:1004980031014FEA02701FBF12F07F4393F07F4F84
:1004A80081F06051704732F07F4208BF704793F087
:1004B8007F4F04BF41F40021704730B54FF460749A
:1004C80001F0004521F000411CE700BF50EA01029D
:1004D80008BF704730B54FF000050AE050EA010246
:1004E80008BF704730B511F0004502D5404261EBB6
:1004F80041014FF4806404F132045FEA915C3FF4F7
:10050800D8AE4FF003025FEADC0C18BF03325FEA93
:10051800DC0C18BF033202EBDC02C2F1200300FA44
:1005280003FC20FA02F001FA03FE40EA0E0021FA69
:1005380002F11444BDE600BF70B54FF0FF0C4CF457
:10054800E06C1CEA11541DBF1CEA135594EA0C0F09
:1005580095EA0C0F00F0DEF82C4481EA030621EA44
:100568004C5123EA4C5350EA013518BF52EA03357F
:1005780041F4801143F4801338D0A0FB02CE4FF031
:100588000005E1FB02E506F00042E0FB03E54FF061
:100598000006E1FB03569CF0000F18BF4EF0010E59
:1005A800A4F1FF04B6F5007F64F5407404D25FEA55
:1005B8004E0E6D4146EB060642EAC62141EA555108
:1005C8004FEAC52040EA5E504FEACE2EB4F1FD0C4A
:1005D80088BFBCF5E06F1ED8BEF1004F08BF5FEAC8
:1005E800500E50F1000041EB045170BD06F000467A
:1005F80046EA010140EA020081EA0301B4EB5C0427
:10060800C2BFD4EB0C0541EA045170BD41F480111E
:100618004FF0000E013C00F3AB8014F1360FDEBF43
:10062800002001F0004170BDC4F10004203C35DA1F
:100638000C341BDC04F11404C4F1200500FA05F3A2
:1006480020FA04F001FA05F240EA020001F0004243
:1006580021F0004110EBD37021FA04F642EB0601B9
:100668005EEA430E08BF20EAD37070BDC4F10C04E3
:10067800C4F1200500FA04F320FA05F001FA04F2A7
:1006880040EA020001F0004110EBD37041F1000193
:100698005EEA430E08BF20EAD37070BDC4F120059E
:1006A80000FA05F24EEA020E20FA04F301FA05F206
:1006B80043EA020321FA04F001F0004121FA04F2AE
:1006C80020EA020000EBD3705EEA430E08BF20EA7E
:1006D800D37070BD94F0000F0FD101F000464000B8
:1006E80041EB010111F4801F08BF013CF7D041EA3A
:1006F800060195F0000F18BF704703F0004652003E
:1007080043EB030313F4801F08BF013DF7D043EA0E
:100718000603704794EA0C0F0CEA135518BF95EAC4
:100728000C0F0CD050EA410618BF52EA4306D1D14B
:1007380081EA030101F000414FF0000070BD50EA6A
:10074800410606BF1046194652EA430619D094EAF4
:100758000C0F02D150EA013613D195EA0C0F05D1DE
:1007680052EA03361CBF104619460AD181EA030132
:1007780001F0004141F0FE4141F470014FF00000EA
:1007880070BD41F0FE4141F4780170BD70B54FF085
:10079800FF0C4CF4E06C1CEA11541DBF1CEA135505
:1007A80094EA0C0F95EA0C0F00F0A7F8A4EB0504E7
:1007B80081EA030E52EA03354FEA013100F08880DE
:1007C8004FEA03334FF0805545EA131343EA1263A7
:1007D8004FEA022245EA111545EA10654FEA00265C
:1007E8000EF000419D4208BF964244F1FD0404F515
:1007F800407402D25B084FEA3202B61A65EB030571
:100808005B084FEA32024FF480104FF4002CB6EB2D
:10081800020E75EB030E22BFB61A754640EA0C00AD
:100828005B084FEA3202B6EB020E75EB030E22BFED
:10083800B61A754640EA5C005B084FEA3202B6EB2E
:10084800020E75EB030E22BFB61A754640EA9C00ED
:100858005B084FEA3202B6EB020E75EB030E22BFBD
:10086800B61A754640EADC0055EA060E18D04FEA7B
:10087800051545EA16754FEA06164FEAC30343EA1B
:1008880052734FEAC2025FEA1C1CC0D111F4801FE8
:100898000BD141EA00014FF000004FF0004CB6E7E1
:1008A80011F4801F04BF01430020B4F1FD0C88BF80
:1008B800BCF5E06F3FF6AFAEB5EB030C04BFB6EB8B
:1008C800020C5FEA500C50F1000041EB045170BD7E
:1008D8000EF0004E4EEA113114EB5C04C2BFD4EBAB
:1008E8000C0541EA045170BD41F480114FF0000E2F
:1008F800013C90E645EA060E8DE60CEA135594EAAB
:100908000C0F08BF95EA0C0F3FF43BAF94EA0C0FAD
:100918000AD150EA01347FF434AF95EA0C0F7FF422
:1009280025AF104619462CE795EA0C0F06D152EA76
:1009380003353FF4FDAE1046194622E750EA41065A
:1009480018BF52EA43067FF4C5AE50EA41047FF46B
:100958000DAF52EA43057FF4EBAE12E74FEA4102CE
:10096800B2F1E04324BFB3F5001CDCF1FE5C0DD905
:1009780001F0004C4FEAC0024CEA5070B2F1004F4F
:1009880040EB830008BF20F00100704711F0804F52
:1009980021D113F13872BCBF01F00040704741F417
:1009A80080114FEA5252C2F11802C2F1200C10FA1B
:1009B8000CF320FA02F018BF40F001004FEAC123FF
:1009C8004FEAD32303FA0CFC40EA0C0023FA02F3A3
:1009D8004FEA4303CCE77FEA625307D150EA013379
:1009E8001EBF4FF0FE4040F44000704701F0004049
:1009F80040F0FE4040F40000704700BF80F0004027
:100A080002E000BF81F0004142001FBF5FEA4103DE
:100A180092EA030F7FEA226C7FEA236C6AD04FEADE
:100A28001262D2EB1363C1BFD21841404840414023
:100A3800B8BF5B42192B88BF704710F0004F40F4D5
:100A4800000020F07F4018BF404211F0004F41F4F1
:100A5800000121F07F4118BF494292EA030F3FD0BD
:100A6800A2F1010241FA03FC10EB0C00C3F12003D0
:100A780001FA03F100F0004302D5494260EB40005F
:100A8800B0F5000F13D3B0F1807F06D340084FEACA
:100A9800310102F10102FE2A51D2B1F1004F40EBBF
:100AA800C25008BF20F0010040EA03007047490027
:100AB80040EB0000013A28BFB0F5000FEDD2B0FAC4
:100AC80080FCACF1080CB2EB0C0200FA0CF0AABFE7
:100AD80000EBC25052421843BCBFD0401843704785
:100AE80092F0000F81F4000106BF80F4000001328B
:100AF800013BB5E74FEA41037FEA226C18BF7FEA62
:100B0800236C21D092EA030F04D092F0000F08BFA3
:100B18000846704790EA010F1CBF0020704712F08A
:100B28007F4F04D1400028BF40F00040704712F1C9
:100B380000723CBF00F50000704700F0004343F02E
:100B4800FE4040F4000070477FEA226216BF084664
:100B58007FEA23630146420206BF5FEA412390EA27
:100B6800010F40F4800070474FF0000304E000BF1D
:100B780010F0004348BF40425FEA000C08BF7047CE
:100B880043F0964301464FF000001CE050EA010292
:100B980008BF70474FF000030AE000BF50EA0102A7
:100BA80008BF704711F0004302D5404261EB410194
:100BB8005FEA010C02BF84460146002043F0B643B9
:100BC80008BFA3F18053A3F50003BCFA8CF2083ADE
:100BD800A3EBC25310DB01FA02FC634400FA02FCE7
:100BE800C2F12002BCF1004F20FA02F243EB0200EE
:100BF80008BF20F00100704702F1200201FA02FC50
:100C0800C2F1200250EA4C0021FA02F243EB020042
:100C180008BF20EADC70704753B94AB9002908BFF9
:100C280000281CBF4FF0FF314FF0FF3000F074B9BF
:100C3800ADF1080C6DE904CE00F006F8DDF804E02B
:100C4800DDE9022304B070472DE9F047089D04460A
:100C58008E46002B4DD18A42944669D9B2FA82F267
:100C680052B101FA02F3C2F1200120FA01F10CFAA3
:100C780002FC41EA030E94404FEA1C48210CBEFBDB
:100C8800F8F61FFA8CF708FB16E341EA034306FB64
:100C980007F199420AD91CEB030306F1FF3080F0F3
:100CA8001F81994240F21C81023E63445B1AA4B240
:100CB800B3FBF8F008FB103344EA034400FB07F7E2
:100CC800A7420AD91CEB040400F1FF3380F00A8123
:100CD800A74240F207816444023840EA0640E41B18
:100CE80000261DB1D4400023C5E900433146BDE8C4
:100CF800F0878B4209D9002D00F0EF800026C5E966
:100D0800000130463146BDE8F087B3FA83F6002E7D
:100D18004AD18B4202D3824200F2F980841A61EBF5
:100D2800030301209E46002DE0D0C5E9004EDDE713
:100D380002B9FFDEB2FA82F2002A40F09280A1EBFB
:100D48000C014FEA1C471FFA8CFE0126200CB1FB50
:100D5800F7F307FB131140EA01410EFB03F0884249
:100D680008D91CEB010103F1FF3802D2884200F2D6
:100D7800CB804346091AA4B2B1FBF7F007FB101168
:100D880044EA01440EFB00FEA64508D91CEB040406
:100D980000F1FF3102D2A64500F2BB800846A4EB61
:100DA8000E0440EA03409CE7C6F12007B34022FA4C
:100DB80007FC4CEA030C20FA07F401FA06F31C437B
:100DC800F9404FEA1C4900FA06F3B1FBF9F8200C88
:100DD8001FFA8CFE09FB181140EA014108FB0EF0CE
:100DE800884202FA06F20BD91CEB010108F1FF3A1E
:100DF80080F08880884240F28580A8F1020861442A
:100E0800091AA4B2B1FBF9F009FB101144EA014137
:100E180000FB0EFE8E4508D91CEB010100F1FF34E2
:100E28006CD28E456AD90238614440EA0840A0FB7A
:100E38000294A1EB0E01A142C846A64656D353D050
:100E48005DB1B3EB080261EB0E0101FA07F722FA74
:100E580006F3F1401F43C5E9007100263146BDE89D
:100E6800F087C2F12003D8400CFA02FC21FA03F300
:100E7800914001434FEA1C471FFA8CFEB3FBF7F081
:100E880007FB10360B0C43EA064300FB0EF69E42A6
:100E980004FA02F408D91CEB030300F1FF382FD23F
:100EA8009E422DD9023863449B1B89B2B3FBF7F6E7
:100EB80007FB163341EA034106FB0EF38B4208D9C0
:100EC8001CEB010106F1FF3816D28B4214D9023E01
:100ED8006144C91A46EA004638E72E46284605E71F
:100EE8000646E3E61846F8E64B45A9D2B9EB0208F0
:100EF80064EB0C0E0138A3E74646EAE7204694E780
:100F08004046D1E7D0467BE7023B614432E73046B2
:100F180009E76444023842E7704700BF80B582B0F1
:100F280000AF78607B681B881A460021786800F05B
:100F38004BF87B685B881A460121786800F044F812
:100F48007B689B881A460221786800F03DF87B6828
:100F5800DB881A460321786800F036F87B681B891D
:100F68001A460B21786800F02FF87B685B891A46CF
:100F78000C21786800F028F87B689B891A460D21B7
:100F8800786800F021F87B68DB891A460E217868BA
:100F980000F01AF87B681B8A1A460F21786800F05F
:100FA80013F87B685B8A1A461021786800F00CF801
:100FB8007B689B8A1A461121786800F005F800BF03
:100FC8000837BD4680BD000080B584B000AF7860AA
:100FD8000B46FB7013463B80204B1B88BB810023CC
:100FE800BB73FB789B00DBB23B733B881B0A9BB24D
:100FF800DBB27B733B88DBB2BB7300224FF400711A
:10100800174801F08FF802E0012000F0E5FD154BCC
:101018001B6893F85130DBB2002BF5D0114B1868E0
:1010280007F10C01C823032201F05DFD0346002BE4
:1010380001D000F041FC01224FF40071084801F092
:1010480071F8FB78002B05D13B8803F010039AB2A6
:101058007B68DA8200BF1037BD4680BD443900087E
:1010680000100240480000202DE9B04388B000AFCE
:1010780078600B46FB7002E0012000F0ADFD344BB8
:101088001B6893F85130DBB2012BF5D100233B7577
:101098000023FB6000233B82FB789B005BB243F09C
:1010A80001035BB2DBB23B7500224FF400712948A3
:1010B80001F038F8264B186807F114014FF0FF3398
:1010C800012201F010FD224B186807F10C014FF0C6
:1010D800FF33062201F043FE01224FF400711D4840
:1010E80001F020F84FF000024FF00003C7E9062393
:1010F800FB78194AD35CBB750023FB751BE0D7E965
:1011080006014FF000024FF000030B0243EA1063A0
:101118000202F97D2031394411F8141CC9B20020AB
:101128000C46054642EA040843EA0509C7E9068968
:10113800FB7D0133FB75FA7DBB7D9A42DFD3D7E98E
:101148000623104619462037BD46BDE8B08300BFC8
:1011580048000020001002404839000880B483B0DD
:1011680000AF786087ED000A7B683A689A6100BF33
:101178000C37BD465DF8047B704700000000000096
:1011880080B586B000AF786004217868FFF76CFFFF
:10119800C7E90201D7E902014FF000024FF000034E
:1011A800020942EA01720B09C7E90223D7E90223BF
:1011B800B2F5002F73F100030CD3D7E90201FFF752
:1011C800E5FC07EE100ADFED2C7A77EE677AC7EDBB
:1011D800057A05E0D7E90201FFF7D8FC03467B61F1
:1011E8007B68DB8A102B19D17869FFF74DF91CA3AE
:1011F800D3E90023FFF7A0F902460B46104619462B
:1012080019A3D3E90023FFF7C1FA02460B4610469B
:101218001946FFF7A3FB03467B6118E07869FFF7DF
:1012280033F913A3D3E90023FFF786F902460B46E7
:10123800104619460CA3D3E90023FFF7A7FA024684
:101248000B4610461946FFF789FB03467B617B690D
:1012580007EE903AB0EE670A1837BD4680BD00BF6A
:1012680000000000008853400000000080842E41E8
:101278000000000000887340000080490000000062
:1012880080B586B000AF786005217868FFF7ECFE7E
:10129800C7E90201D7E902014FF000024FF000034D
:1012A800020942EA01720B09C7E90223D7E90223BE
:1012B800B2F5002F73F100030CD3D7E90201FFF751
:1012C80065FC07EE100ADFED1C7A77EE677AC7ED4A
:1012D800057A05E0D7E90201FFF758FC03467B6170
:1012E8007869FFF7D1F810A3D3E90023FFF724F9B1
:1012F80002460B46104619460DA3D3E90023FFF713
:1013080045FA02460B4610461946FFF727FB0346E7
:101318007B617B6907EE903AB0EE670A1837BD46E5
:1013280080BD00BFAFF3008000000000006A684085
:101338000000000080842E410000804980B586B0FE
:1013480000AF786006217868FFF78EFEC7E90201D2
:10135800D7E90223B2F5004F73F100030CD3D7E9A4
:101368000201FFF713FC07EE100ADFED177A77EE9C
:10137800677AC7ED057A05E0D7E90201FFF706FCB1
:1013880003467B617869FFF77FF84FF000020F4B47
:10139800FFF7D2F802460B46104619464FF00002F6
:1013A8000B4BFFF7F3F902460B4610461946FFF7B9
:1013B800D5FA03467B617B6907EE903AB0EE670A7F
:1013C8001837BD4680BD00BF0000804700401F4061
:1013D80000408F4080B586B000AF786007217868FC
:1013E800FFF742FEC7E90201D7E902014FF0000208
:1013F8004FF00003020942EA01720B09C7E9022310
:10140800D7E90223B2F5002F73F100030CD3D7E913
:101418000201FFF7BBFB07EE100ADFED0A7A77EE51
:10142800677AC7ED057A05E0D7E90201FFF7AEFB59
:1014380003467B617B6907EE903AB0EE670A18377E
:10144800BD4680BD0000804980B584B000AF78609B
:101458007868FFF7BFFF87ED030A7B68D3ED067A4C
:1014680097ED037A67EE277AC7ED037AFB6807EEF4
:10147800903AB0EE670A1037BD4680BD80B582B09D
:1014880000AF78603960386802F09CF80A4A7B68D7
:1014980013600A4A3B681360094B1846FFF73EFD84
:1014A800074BDFED087AB0EE670A1846FFF756FEDD
:1014B80000BF0837BD4680BD480000204C00002012
:1014C800000000200000003690B58FB000AF294B17
:1014D8001B681B685B6AFB866423BB86254B1B68FD
:1014E8001B685B6A244A12889A1ABB8E9A4222D3D6
:1014F800224B1846FFF744FEF0EE407AC7ED057A16
:101508001E4B1846FFF7BCFEF0EE407AC7ED067A90
:101518001A4B1846FFF798FFF0EE407AC7ED077AA6
:10152800164B1846FFF70AFFF0EE407AC7ED087A27
:10153800114AFB8E138007F1240407F114030FCB23
:1015480084E80F00786AB96AFA6A3B6B06EE100AFB
:1015580006EE901A07EE102A07EE903AB0EE460A09
:10156800F0EE660AB0EE471AF0EE671A3C37BD4651
:1015780090BD00BF4C00002050000020000000205B
:1015880080B500AF00F0B6FA00F026F800F0FAF8DF
:1015980000F08CF800F0C0F80C490D48FFF76EFF1A
:1015A80000F064F9FFF790FFB0EE406AF0EE606A71
:1015B800B0EE417AF0EE617A064B83ED006AC3ED36
:1015C800016A83ED027AC3ED037AEBE7AC000020F1
:1015D80054000020F400002080B594B000AF07F15B
:1015E800200330220021184602F094F907F10C0379
:1015F80000221A605A609A60DA601A610023BB60A0
:10160800284B1B6C274A43F080531364254B1B6CF3
:1016180003F08053BB60BB6800237B60224B1B68D0
:10162800214A43F4804313601F4B1B6803F4804333
:101638007B607B6802233B620123FB6210233B63D0
:101648000223BB630023FB6308233B6450237B64B2
:101658000223BB640423FB6407F12003184600F04F
:1016680095FD0346002B01D000F026F90F23FB60FF
:1016780002233B6100237B614FF4A053BB614FF40D
:101688008053FB6107F10C030221184600F0F6FFB6
:101698000346002B01D000F00FF900BF5037BD46BC
:1016A80080BD00BF003802400070004080B500AF28
:1016B800174B184A1A60164B4FF482725A60144B33
:1016C80000229A60124B0022DA60114B00221A6144
:1016D8000F4B01225A610E4B4FF400729A610C4B6A
:1016E8001822DA610A4B00221A62094B00225A6258
:1016F800074B00229A62064B0A22DA62044801F07C
:1017080069F90346002B01D000F0D6F800BF80BD70
:10171800540000200038004080B582B000AF3B463E
:1017280000221A605A60154B154A1A60134B49F685
:101738003F425A60114B00229A60104B4FF6FF72DD
:10174800DA600E4B00229A610C4801F0EBFE03466A
:10175800002B01D000F0B0F800233B6000237B6031
:101768003B461946054802F035F80346002B01D0E0
:1017780000F0A2F800BF0837BD4680BDAC000020CD
:101788000010004080B588B000AF07F10C030022BC
:101798001A605A609A60DA601A610023BB60304BA5
:1017A8001B6B2F4A43F0100313632D4B1B6B03F085
:1017B8001003BB60BB6800237B60294B1B6B284A66
:1017C80043F004031363264B1B6B03F004037B6095
:1017D8007B6800233B60224B1B6B214A43F00203CA
:1017E80013631F4B1B6B03F002033B603B68002233
:1017F8004FF401711B4800F095FC002201211A48A2
:1018080000F090FC4FF40173FB6001233B6100235F
:101818007B610023BB6107F10C031946114800F0F6
:10182800E5FA0123FB6001233B6100237B61002370
:10183800BB6107F10C0319460B4800F0D7FA4FF4C7
:101848000043FB6000233B6100237B6107F10C032D
:101858001946054800F0CAFA00BF2037BD4680BDCA
:1018680000380240001002400004024080B500AF7A
:101878000421104800F06FFC322000F0ADF904217B
:101888000C4800F068FC4FF4967000F0A5F90421AC
:10189800084800F060FC4FF4967000F09DF90421B0
:1018A800044800F058FC00220421024800F03AFCE9
:1018B80000BF80BD0010024080B400AF72B600BF08
:1018C800FEE7000080B483B000AF00237B60104BBC
:1018D8005B6C0F4A43F4804353640D4B5B6C03F419
:1018E80080437B607B6800233B60094B1B6C084A84
:1018F80043F080531364064B1B6C03F080533B602A
:101908003B6800BF0C37BD465DF8047B704700BFDD
:101918000038024080B58AB000AF786007F1140340
:1019280000221A605A609A60DA601A617B681B6844
:10193800284A93424AD100233B61274B1B6C264A15
:1019480043F480431364244B1B6C03F480433B61D2
:101958003B690023FB60204B1B6B1F4A43F00403C9
:1019680013631D4B1B6B03F00403FB60FB68002330
:10197800BB60194B1B6B184A43F002031363164BE9
:101988001B6B03F00203BB60BB680C237B61022363
:10199800BB610023FB6103233B6205237B6207F1E4
:1019A800140319460D4800F021FA4FF480637B6157
:1019B8000223BB610023FB6103233B6205237B6297
:1019C80007F114031946064800F010FA00BF28373B
:1019D800BD4680BD00380040003802400008024083
:1019E8000004024080B485B000AF78607B681B6853
:1019F8000B4A93420DD10023FB600A4B1B6C094A2A
:101A080043F010031364074B1B6C03F01003FB60D7
:101A1800FB6800BF1437BD465DF8047B704700BF04
:101A2800001000400038024080B400AFFEE780B4E8
:101A380000AFFEE780B400AFFEE780B400AFFEE77A
:101A480080B400AFFEE780B400AF00BFBD465DF8CC
:101A5800047B704780B400AF00BFBD465DF8047BCF
:101A6800704780B400AF00BFBD465DF8047B704787
:101A780080B500AF00F090F800BF80BD80B400AF23
:101A8800064BD3F88830054A43F47003C2F888300F
:101A980000BFBD465DF8047B704700BF00ED00E065
:101AA800DFF834D00D480E490E4A002302E0D4581E
:101AB800C4500433C4188C42F9D30B4A0B4C00238E
:101AC80001E013600432A242FBD3FFF7D7FF01F015
:101AD800FDFEFFF755FD70470000022000000020C2
:101AE8002C000020A83900082C0000200801002044
:101AF800FEE7000080B500AF0E4B1B680D4A43F4AB
:101B0800007313600B4B1B680A4A43F4806313602D
:101B1800084B1B68074A43F480731360032000F0E6
:101B280031F90F2000F008F8FFF7CCFE0023184623
:101B380080BD00BF003C024080B582B000AF786035
:101B4800124B1A68124B1B7819464FF47A73B3FB81
:101B5800F1F3B2FBF3F3184600F03BF90346002B10
:101B680001D001230EE07B680F2B0AD80022796888
:101B78004FF0FF3000F011F9064A7B68136000232C
:101B880000E0012318460837BD4680BD200000202C
:101B9800280000202400002080B400AF064B1B78EA
:101BA8001A46064B1B681344044A136000BFBD461F
:101BB8005DF8047B704700BF280000200401002066
:101BC80080B400AF034B1B681846BD465DF8047B24
:101BD800704700BF0401002080B584B000AF786072
:101BE800FFF7EEFFB8607B68FB60FB68B3F1FF3F6F
:101BF80005D00A4B1B781A46FB681344FB6000BFEC
:101C0800FFF7DEFF0246BB68D31AFA689A42F7D894
:101C180000BF00BF1037BD4680BD00BF28000020B0
:101C280080B485B000AF78607B6803F00703FB6081
:101C38000C4BDB68BB60BA684FF6FF031340BB6010
:101C4800FB681A02BB68134343F0BF6343F40033D5
:101C5800BB60044ABB68D36000BF1437BD465DF85B
:101C6800047B704700ED00E080B400AF044BDB68F4
:101C78001B0A03F007031846BD465DF8047B70474E
:101C880000ED00E080B483B000AF03463960FB711B
:101C980097F90730002B0ADB3B68DAB20C4997F951
:101CA80007301201D2B20B4483F800230AE03B68E4
:101CB800DAB20849FB7903F00F03043B1201D2B2F0
:101CC8000B441A7600BF0C37BD465DF8047B70479D
:101CD80000E100E000ED00E080B489B000AFF860FA
:101CE800B9607A60FB6803F00703FB61FB69C3F125
:101CF8000703042B28BF0423BB61FB690433062BAD
:101D080002D9FB69033B00E000237B614FF0FF32FF
:101D1800BB6902FA03F3DA43BB681A407B699A404D
:101D28004FF0FF317B6901FA03F3D9437B680B401D
:101D3800134318462437BD465DF8047B70470000FE
:101D480080B582B000AF78607B68013BB3F1807FDB
:101D580001D301230FE00A4A7B68013B53600F213E
:101D68004FF0FF30FFF78EFF054B00229A60044BBF
:101D780007221A60002318460837BD4680BD00BFF9
:101D880010E000E080B582B000AF78607868FFF7B7
:101D980047FF00BF0837BD4680BD80B586B000AF9D
:101DA8000346B9607A60FB7300237B61FFF75CFF31
:101DB80078617A68B9687869FFF78EFF024697F903
:101DC8000F3011461846FFF75DFF00BF1837BD46B4
:101DD80080BD80B582B000AF78607868FFF7B0FF4B
:101DE800034618460837BD4680BD000080B489B058
:101DF80000AF7860396000237B6100233B610023DA
:101E0800BB610023FB616BE10122FB6902FA03F36A
:101E18007B613B681B687A6913403B613A697B695F
:101E28009A4240F05A813B685B6803F00303012B38
:101E380005D03B685B6803F00303022B30D17B6855
:101E48009B68BB61FB695B00032202FA03F3DB4377
:101E5800BA691340BB613B68DA68FB695B0002FA48
:101E680003F3BA691343BB617B68BA699A607B68FC
:101E78005B68BB610122FB6902FA03F3DB43BA69C1
:101E88001340BB613B685B681B0903F00102FB69F7
:101E980002FA03F3BA691343BB617B68BA695A60F3
:101EA8003B685B6803F00303032B17D07B68DB6890
:101EB800BB61FB695B00032202FA03F3DB43BA69E7
:101EC8001340BB613B689A68FB695B0002FA03F345
:101ED800BA691343BB617B68BA69DA603B685B68BF
:101EE80003F00303022B23D1FB69DA087B6808326D
:101EF80053F82230BB61FB6903F007039B000F22F4
:101F080002FA03F3DB43BA691340BB613B681A6901
:101F1800FB6903F007039B0002FA03F3BA69134352
:101F2800BB61FB69DA087B680832B96943F822109B
:101F38007B681B68BB61FB695B00032202FA03F341
:101F4800DB43BA691340BB613B685B6803F003027B
:101F5800FB695B0002FA03F3BA691343BB617B6850
:101F6800BA691A603B685B6803F44033002B00F0E1
:101F7800B4800023FB60604B5B6C5F4A43F4804392
:101F880053645D4B5B6C03F48043FB60FB685B4A06
:101F9800FB699B08023352F82330BB61FB6903F0ED
:101FA80003039B000F2202FA03F3DB43BA691340D1
:101FB800BB617B68524A93422BD07B68514A93425B
:101FC80025D07B68504A93421FD07B684F4A934282
:101FD80019D07B684E4A934213D07B684D4A93428E
:101FE8000DD07B684C4A934207D07B684B4A93429A
:101FF80001D107230EE008230CE006230AE005239D
:1020080008E0042306E0032304E0022302E001239E
:1020180000E00023FA6902F0030292009340BA69D3
:102028001343BB613549FB699B080233BA6941F820
:1020380023203B4B9B68BB613B69DB43BA69134078
:10204800BB613B685B6803F48013002B03D0BA695B
:102058003B691343BB61324ABB699360304BDB6811
:10206800BB613B69DB43BA691340BB613B685B6892
:1020780003F40013002B03D0BA693B691343BB6117
:10208800274ABB69D360264B5B68BB613B69DB436E
:10209800BA691340BB613B685B6803F40033002BEB
:1020A80003D0BA693B691343BB611D4ABB695360DE
:1020B8001B4B1B68BB613B69DB43BA691340BB61BF
:1020C8003B685B6803F48033002B03D0BA693B6933
:1020D8001343BB61124ABB691360FB690133FB619F
:1020E800FB690F2B7FF690AE00BF00BF2437BD46BB
:1020F8005DF8047B704700BF00380240003801409B
:10210800000002400004024000080240000C0240A7
:10211800001002400014024000180240001C024057
:10212800003C014080B483B000AF78600B467B80F0
:1021380013467B707B78002B03D07A887B689A6182
:1021480003E07B881A047B689A6100BF0C37BD46A0
:102158005DF8047B704780B485B000AF78600B46AB
:102168007B807B685B69FB607A88FB6813401A0494
:10217800FB68D9437B880B401A437B689A6100BF90
:102188001437BD465DF8047B7047000080B586B003
:1021980000AF78607B68002B01D1012367E27B6880
:1021A8001B6803F00103002B75D0884B9B6803F074
:1021B8000C03042B0CD0854B9B6803F00C03082BF5
:1021C80012D1824B5B6803F48003B3F5800F0BD107
:1021D8007E4B1B6803F40033002B5BD07B685B6885
:1021E800002B57D1012342E27B685B68B3F5803F3F
:1021F80006D1764B1B68754A43F4803313601DE0A3
:102208007B685B68B3F5A02F0CD1704B1B686F4AD5
:1022180043F4802313606D4B1B686C4A43F480338E
:1022280013600BE0694B1B68684A23F48033136022
:10223800664B1B68654A23F4802313607B685B68E0
:10224800002B13D0FFF7BCFC386108E0FFF7B8FC9F
:1022580002463B69D31A642B01D9032307E25B4B7F
:102268001B6803F40033002BF0D014E0FFF7A8FC40
:10227800386108E0FFF7A4FC02463B69D31A642BD7
:1022880001D90323F3E1514B1B6803F40033002BFE
:10229800F0D100E000BF7B681B6803F00203002B4D
:1022A80063D04A4B9B6803F00C03002B0BD0474BC1
:1022B8009B6803F00C03082B1CD1444B5B6803F4A8
:1022C8008003002B16D1414B1B6803F00203002B3F
:1022D80005D07B68DB68012B01D00123C7E13B4BAC
:1022E8001B6823F0F8027B681B69DB00374913433E
:1022F8000B603AE07B68DB68002B20D0344B01226E
:102308001A60FFF75DFC386108E0FFF759FC0246E8
:102318003B69D31A022B01D90323A8E12B4B1B6875
:1023280003F00203002BF0D0284B1B6823F0F802BF
:102338007B681B69DB00254913430B6015E0244BC0
:1023480000221A60FFF73CFC386108E0FFF738FC10
:1023580002463B69D31A022B01D9032387E11B4BA1
:102368001B6803F00203002BF0D17B681B6803F0A5
:102378000803002B36D07B685B69002B16D0154B01
:1023880001221A60FFF71CFC386108E0FFF718FC0F
:1023980002463B69D31A022B01D9032367E10B4B91
:1023A8005B6F03F00203002BF0D01BE0094B002207
:1023B8001A60FFF705FC38610EE0FFF701FC0246E2
:1023C8003B69D31A022B07D9032350E10038024096
:1023D80000004742800E4742884B5B6F03F00203C0
:1023E800002BEAD17B681B6803F00403002B00F084
:1023F80097800023FB75814B1B6C03F08053002BE7
:102408000FD10023BB607D4B1B6C7C4A43F080538B
:1024180013647A4B1B6C03F08053BB60BB680123C9
:10242800FB75774B1B6803F48073002B18D1744B32
:102438001B68734A43F480731360FFF7C1FB38616C
:1024480008E0FFF7BDFB02463B69D31A022B01D90E
:1024580003230CE16A4B1B6803F48073002BF0D054
:102468007B689B68012B06D1644B1B6F634A43F062
:10247800010313671CE07B689B68052B0CD15F4B3D
:102488001B6F5E4A43F0040313675C4B1B6F5B4A88
:1024980043F0010313670BE0584B1B6F574A23F0B7
:1024A80001031367554B1B6F544A23F0040313674A
:1024B8007B689B68002B15D0FFF782FB38610AE028
:1024C800FFF77EFB02463B69D31A41F288329342FA
:1024D80001D90323CBE0494B1B6F03F00203002B08
:1024E800EED014E0FFF76CFB38610AE0FFF768FBF9
:1024F80002463B69D31A41F28832934201D9032339
:10250800B5E03E4B1B6F03F00203002BEED1FB7DC1
:10251800012B05D1394B1B6C384A23F080531364C7
:102528007B689B69002B00F0A180344B9B6803F00B
:102538000C03082B5CD07B689B69022B41D1314B83
:1025480000221A60FFF73CFB386108E0FFF738FB10
:1025580002463B69D31A022B01D9032387E0274B94
:102568001B6803F00073002BF0D17B68DA697B6885
:102578001B6A1A437B685B6A9B011A437B689B6AE8
:102588005B08013B1B041A437B68DB6A1B061B497B
:1025980013434B601B4B01221A60FFF711FB386194
:1025A80008E0FFF70DFB02463B69D31A022B01D95D
:1025B80003235CE0114B1B6803F00073002BF0D081
:1025C80054E0104B00221A60FFF7FAFA386108E06D
:1025D800FFF7F6FA02463B69D31A022B01D9032307
:1025E80045E0064B1B6803F00073002BF0D13DE07B
:1025F8007B689B69012B07D1012338E00038024032
:1026080000700040600047421B4B5B68FB607B68C2
:102618009B69012B28D0FB6803F480027B68DB6987
:102628009A4221D1FB6803F03F027B681B6A9A42F9
:102638001AD1FA6847F6C07313407A68526A920151
:10264800934211D1FB6803F440327B689B6A5B08B4
:10265800013B1B049A4207D1FB6803F070627B6858
:10266800DB6A1B069A4201D0012300E000231846CA
:102678001837BD4680BD00BF0038024080B584B021
:1026880000AF786039607B68002B01D10123CCE072
:10269800684B1B6803F007033A689A420CD9654BEC
:1026A8003A68D2B21A70634B1B6803F007033A68A2
:1026B8009A4201D00123B8E07B681B6803F002034B
:1026C800002B20D07B681B6803F00403002B05D087
:1026D800594B9B68584A43F4E05393607B681B68E6
:1026E80003F00803002B05D0534B9B68524A43F470
:1026F80060439360504B9B6823F0F0027B689B68B3
:102708004D4913438B607B681B6803F00103002B62
:1027180044D07B685B68012B07D1474B1B6803F4E7
:102728000033002B19D101237FE07B685B68022B03
:1027380003D07B685B68032B07D13F4B1B6803F012
:102748000073002B09D101236FE03B4B1B6803F09A
:102758000203002B01D1012367E0374B9B6823F06C
:1027680003027B685B68344913438B60FFF728FAE0
:10277800F8600AE0FFF724FA0246FB68D31A41F230
:102788008832934201D903234FE02B4B9B6803F017
:102798000C027B685B689B009A42EBD1254B1B6857
:1027A80003F007033A689A420CD2224B3A68D2B235
:1027B8001A70204B1B6803F007033A689A4201D04D
:1027C800012332E07B681B6803F00403002B08D068
:1027D800194B9B6823F4E0527B68DB681649134366
:1027E8008B607B681B6803F00803002B09D0124B31
:1027F8009B6823F460427B681B69DB000E49134326
:102808008B6000F021F802460B4B9B681B0903F014
:102818000F030A49CB5C22FA03F3094A1360094BF8
:102828001B681846FFF788F9002318461037BD467D
:1028380080BD00BF003C02400038024088390008D3
:1028480020000020240000202DE9B04F90B000AFF8
:1028580000237B630023FB6300233B630023BB63EC
:10286800594B9B6803F00C03082B0DD0082B00F282
:10287800A180002B02D0042B03D09BE0534BBB63F9
:102888009BE0534BBB6398E04F4B5B6803F03F03FF
:102898007B634D4B5B6803F48003002B28D04A4BC5
:1028A8005B689B0900223B627A623B6AC3F30800BB
:1028B8000021474B03FB01F2002300FB03F3134401
:1028C800434AA0FB0212FA620A46BA62FA6A134441
:1028D800FB627B6B0022BB61FA61D7E90623D7E96B
:1028E8000A01FEF799F902460B461346FB6353E0CB
:1028F800354B5B689B0900223B617A613B69C3F3F6
:10290800080A4FF0000B52465B464FF000004FF0AC
:102918000001590141EAD261500102460B46B2EB6F
:102928000A0863EB0B094FF000024FF000034FEA6F
:10293800891343EA98634FEA8812B2EB080463EB01
:1029480009054FF000024FF00003EB0043EA54730F
:10295800E20014461D4614EB0A033B6045EB0B03EB
:102968007B604FF000024FF00003D7E9004529468D
:102978008B02214643EA915321468A0210461946A2
:102988007B6B0022BB60FA60D7E90223FEF744F9AB
:1029980002460B461346FB630B4B5B681B0C03F0AC
:1029A800030301335B003B63FA6B3B6BB2FBF3F34E
:1029B800BB6302E0054BBB6300BFBB6B18464037E7
:1029C800BD46BDE8B08F00BF003802400024F400C7
:1029D80040787D0180B582B000AF78607B68002BBD
:1029E80001D101237BE07B685B6A002B08D17B68FF
:1029F8005B68B3F5827F09D07B680022DA6105E065
:102A08007B6800221A617B6800225A617B68002279
:102A18009A627B6893F85130DBB2002B06D17B6851
:102A2800002283F850207868FEF774FF7B68022242
:102A380083F851207B681B681A687B681B6822F042
:102A480040021A607B685B6803F482727B689B684B
:102A580003F404431A437B68DB6803F400631A43F6
:102A68007B681B6903F002031A437B685B6903F008
:102A780001031A437B689B6903F400731A437B685C
:102A8800DB6903F038031A437B681B6A03F0800391
:102A980042EA03017B689B6A03F400527B681B6867
:102AA8000A431A607B689B691B0C03F004017B686E
:102AB8005B6A03F010027B681B680A435A607B68F4
:102AC8001B68DA697B681B6822F40062DA617B683C
:102AD80000225A657B68012283F85120002318469A
:102AE8000837BD4680BD80B588B000AFF860B960D2
:102AF8003B601346FB800023FB77FB6893F850305C
:102B0800012B01D1022326E1FB68012283F8502022
:102B1800FFF756F8B861FB88FB82FB6893F85130E1
:102B2800DBB2012B02D00223FB770BE1BB68002B41
:102B380002D0FB88002B02D10123FB7702E1FB685E
:102B4800032283F85120FB6800225A65FB68BA68A3
:102B58001A63FB68FA889A86FB68FA88DA86FB6843
:102B680000229A63FB6800229A87FB680022DA87B2
:102B7800FB6800225A64FB6800221A64FB689B68A1
:102B8800B3F5004F0FD1FB681B681A68FB681B6818
:102B980022F040021A60FB681B681A68FB681B6811
:102BA80042F480421A60FB681B681B6803F040030C
:102BB800402B07D0FB681B681A68FB681B6842F04B
:102BC80040021A60FB68DB68B3F5006F4BD1FB6805
:102BD8005B68002B02D0FB8A012B3ED1FB681B6B84
:102BE8001A88FB681B68DA60FB681B6B9A1CFB6819
:102BF8001A63FB68DB8E9BB2013B9AB2FB68DA86EC
:102C08002BE0FB681B689B6803F00203022B12D1C0
:102C1800FB681B6B1A88FB681B68DA60FB681B6B18
:102C28009A1CFB681A63FB68DB8E9BB2013B9AB265
:102C3800FB68DA8611E0FEF7C3FF0246BB69D31AC8
:102C48003A689A4203D83B68B3F1FF3F02D13B6828
:102C5800002B02D10323FB7774E0FB68DB8E9BB269
:102C6800002BCED14CE0FB685B68002B02D0FB8ABE
:102C7800012B40D1FB681A6BFB681B680C33127878
:102C88001A70FB681B6B5A1CFB681A63FB68DB8EA7
:102C98009BB2013B9AB2FB68DA862CE0FB681B68A2
:102CA8009B6803F00203022B13D1FB681A6BFB68C5
:102CB8001B680C3312781A70FB681B6B5A1CFB6874
:102CC8001A63FB68DB8E9BB2013B9AB2FB68DA861B
:102CD80011E0FEF775FF0246BB69D31A3A689A42BB
:102CE80003D83B68B3F1FF3F02D13B68002B02D108
:102CF8000323FB7726E0FB68DB8E9BB2002BCDD14C
:102D0800BA693968F86800F0CBFB0346002B02D09B
:102D1800FB6820225A65FB689B68002B0AD10023B8
:102D28003B61FB681B68DB683B61FB681B689B6851
:102D38003B613B69FB685B6D002B02D00123FB778D
:102D480000E000BFFB68012283F85120FB680022E5
:102D580083F85020FB7F18462037BD4680BD80B5DC
:102D680088B002AFF860B9603B601346FB8000236F
:102D7800FB75FB685B68B3F5827F12D1FB689B68C3
:102D8800002B0ED1FB68042283F85120FA883B6897
:102D980000931346BA68B968F86800F0F1F803467A
:102DA800EAE0FB6893F85030012B01D10223E3E0FD
:102DB800FB68012283F85020FEF702FF3861FB68A8
:102DC80093F85130DBB2012B02D00223FB75CAE025
:102DD800BB68002B02D0FB88002B02D10123FB75B6
:102DE800C1E0FB68042283F85120FB6800225A6581
:102DF800FB68BA689A63FB68FA889A87FB68FA885E
:102E0800DA87FB6800221A63FB6800229A86FB684F
:102E18000022DA86FB6800221A64FB6800225A64E2
:102E2800FB689B68B3F5004F0FD1FB681B681A68F5
:102E3800FB681B6822F040021A60FB681B681A686E
:102E4800FB681B6822F480421A60FB681B681B68D9
:102E580003F04003402B07D0FB681B681A68FB6827
:102E68001B6842F040021A60FB68DB68002B62D1E5
:102E78002EE0FB681B689B6803F00103012B15D14A
:102E8800FB681B6803F10C02FB689B6B1278D2B2DB
:102E98001A70FB689B6B5A1CFB689A63FB68DB8F94
:102EA8009BB2013B9AB2FB68DA8711E0FEF788FE15
:102EB80002463B69D31A3A689A4203D83B68B3F191
:102EC800FF3F02D13B68002B02D10323FB754AE088
:102ED800FB68DB8F9BB2002BCBD131E0FB681B6812
:102EE8009B6803F00103012B13D1FB681B68DA68A8
:102EF800FB689B6B92B21A80FB689B6B9A1CFB6801
:102F08009A63FB68DB8F9BB2013B9AB2FB68DA8756
:102F180011E0FEF755FE02463B69D31A3A689A4219
:102F280003D83B68B3F1FF3F02D13B68002B02D1C5
:102F38000323FB7517E0FB68DB8F9BB2002BCDD119
:102F48003A693968F86800F045FA0346002B02D060
:102F5800FB6820225A65FB685B6D002B02D00123B9
:102F6800FB7500E000BFFB68012283F85120FB6875
:102F7800002283F85020FB7D18461837BD4680BDD7
:102F880080B58CB000AFF860B9607A607B800123AF
:102F9800FB62002387F82B30FB6893F85030012B35
:102FA80001D102238AE1FB68012283F85020FEF751
:102FB80007FE7862FB6893F8513087F82330FB6886
:102FC8005B68FB617B887B8397F82330012B0FD0EC
:102FD800FB69B3F5827F07D1FB689B68002B03D19F
:102FE80097F82330042B03D0022387F82B305BE1BA
:102FF800BB68002B05D07B68002B02D07B88002B98
:1030080003D1012387F82B304EE1FB6893F8513048
:10301800DBB2042B03D0FB68052283F85120FB6840
:1030280000225A65FB687A689A63FB687A88DA87AF
:10303800FB687A889A87FB68BA681A63FB687A889B
:10304800DA86FB687A889A86FB6800221A64FB682D
:1030580000225A64FB681B681B6803F04003402B7E
:1030680007D0FB681B681A68FB681B6842F04002BF
:103078001A60FB68DB68B3F5006F78D1FB685B68A2
:10308800002B02D07B8B012B66D1FB681B6B1A8847
:10309800FB681B68DA60FB681B6B9A1CFB681A6389
:1030A800FB68DB8E9BB2013B9AB2FB68DA8653E081
:1030B800FB681B689B6803F00203022B1BD1FB68AB
:1030C800DB8E9BB2002B16D0FB6A012B13D1FB6859
:1030D8001B6B1A88FB681B68DA60FB681B6B9A1C01
:1030E800FB681A63FB68DB8E9BB2013B9AB2FB68F4
:1030F800DA860023FB62FB681B689B6803F0010308
:10310800012B19D1FB68DB8F9BB2002B14D0FB6815
:103118001B68DA68FB689B6B92B21A80FB689B6B32
:103128009A1CFB689A63FB68DB8F9BB2013B9AB2DF
:10313800FB68DA870123FB62FEF742FD02467B6AE1
:10314800D31ABA6B9A4207D8BB6BB3F1FF3F03D0CF
:10315800032387F82B30A7E0FB68DB8E9BB2002B9C
:10316800A6D1FB68DB8F9BB2002BA1D17CE0FB686A
:103178005B68002B02D07B8B012B6BD1FB681A6B31
:10318800FB681B680C3312781A70FB681B6B5A1C9F
:10319800FB681A63FB68DB8E9BB2013B9AB2FB6843
:1031A800DA8657E0FB681B689B6803F00203022B72
:1031B8001CD1FB68DB8E9BB2002B17D0FB6A012B5E
:1031C80014D1FB681A6BFB681B680C3312781A70F1
:1031D800FB681B6B5A1CFB681A63FB68DB8E9BB28F
:1031E800013B9AB2FB68DA860023FB62FB681B6826
:1031F8009B6803F00103012B19D1FB68DB8F9BB29D
:10320800002B14D0FB681B68DA68FB689B6BD2B292
:103218001A70FB689B6B5A1CFB689A63FB68DB8F10
:103228009BB2013B9AB2FB68DA870123FB62FEF787
:10323800C7FC02467B6AD31ABA6B9A4203D8BB6BA7
:10324800B3F1FF3F02D1BB6B002B03D1032387F8F7
:103258002B3029E0FB68DB8E9BB2002BA2D1FB68E8
:10326800DB8F9BB2002B9DD17A6AB96BF86800F0AE
:1032780017F90346002B06D0012387F82B30FB688B
:1032880020225A6510E0FB689B68002B0BD10023B5
:103298007B61FB681B68DB687B61FB681B689B685C
:1032A8007B617B6900E000BFFB68012283F8512045
:1032B800FB68002283F8502097F82B3018463037E7
:1032C800BD4680BD80B588B000AFF860B9603B608E
:1032D8001346FB71FEF774FC0246BB6A9B1A3A68F8
:1032E8001344FB61FEF76CFCB861394B1B685B014A
:1032F8001B0DFA6902FB03F37B6154E03B68B3F1F1
:10330800FF3F50D0FEF75CFC0246BB69D31AFA694E
:103318009A4202D9FB69002B3DD1FB681B685A68A9
:10332800FB681B6822F0E0025A60FB685B68B3F533
:10333800827F11D1FB689B68B3F5004F04D0FB680E
:103348009B68B3F5806F07D1FB681B681A68FB6838
:103358001B6822F040021A60FB689B6AB3F5005FA5
:103368000FD1FB681B681A68FB681B6822F40052BF
:103378001A60FB681B681A68FB681B6842F40052F5
:103388001A60FB68012283F85120FB68002283F849
:103398005020032317E07B69002B01D10023FB6138
:1033A8007B69013B7B61FB681B689A68BB681340BB
:1033B800BA689A420CBF01230023DBB21A46FB7994
:1033C8009A429BD1002318462037BD4680BD00BFD6
:1033D8002000002080B586B002AFF860B9607A603E
:1033E800FB685B68B3F5827F11D1FB689B68B3F516
:1033F800004F04D0FB689B68B3F5806F07D1FB686A
:103408001B681A68FB681B6822F040021A60FB6898
:103418005B68B3F5827F2AD1FB689B68B3F5806F40
:1034280012D07B680093BB6800228021F868FFF700
:1034380049FF0346002B2DD0FB685B6D43F020024B
:10344800FB685A65032326E07B680093BB6800226B
:103458000121F868FFF736FF0346002B1AD0FB68F6
:103468005B6D43F02002FB685A65032313E07B6819
:103478000093BB6800220121F868FFF723FF034689
:10348800002B07D0FB685B6D43F02002FB685A6590
:10349800032300E0002318461037BD4680BD000016
:1034A80080B588B002AFF860B9607A601B4B1B68C2
:1034B8001B4AA2FB03235B0D4FF47A7202FB03F352
:1034C8007B61FB685B68B3F5827F12D17B680093F0
:1034D800BB6800228021F868FFF7F4FE0346002B42
:1034E80016D0FB685B6D43F02002FB685A65032326
:1034F8000FE07B69002B0AD07B69013B7B61FB688D
:103508001B689B6803F08003802BF2D000E000BFAB
:10351800002318461837BD4680BD00BF2000002094
:10352800819F5E1680B582B000AF78607B68002B03
:1035380001D1012341E07B6893F83D30DBB2002BD9
:1035480006D17B68002283F83C207868FEF74AFAA7
:103558007B68022283F83D207B681A687B68043305
:103568001946104600F096F87B68012283F8462039
:103578007B68012283F83E207B68012283F83F2084
:103588007B68012283F840207B68012283F8412070
:103598007B68012283F842207B68012283F843205C
:1035A8007B68012283F844207B68012283F8452048
:1035B8007B68012283F83D20002318460837BD4662
:1035C80080BD000080B485B000AF78607B6893F858
:1035D8003D30DBB2012B01D0012346E07B6802229B
:1035E80083F83D207B681B68234A934222D07B687E
:1035F8001B68B3F1804F1DD07B681B681F4A93423C
:1036080018D07B681B681E4A934213D07B681B68DE
:103618001C4A93420ED07B681B681B4A934209D010
:103628007B681B68194A934204D07B681B68184A58
:10363800934211D17B681B689B6803F00703FB600A
:10364800FB68062B10D07B681B681A687B681B68B0
:1036580042F001021A6007E07B681B681A687B6801
:103668001B6842F001021A60002318461437BD4651
:103678005DF8047B704700BF000001400004004073
:1036880000080040000C00400004014000400140D8
:103698000018004080B485B000AF786039607B685E
:1036A8001B68FB607B68404A934213D07B68B3F188
:1036B800804F0FD07B683D4A93420BD07B683C4AD1
:1036C800934207D07B683B4A934203D07B683A4ACF
:1036D800934208D1FB6823F07003FB603B685B688A
:1036E800FA681343FB607B682F4A93422BD07B68B0
:1036F800B3F1804F27D07B682C4A934223D07B6854
:103708002B4A93421FD07B682A4A93421BD07B687E
:10371800294A934217D07B68284A934213D07B6882
:10372800274A93420FD07B68264A93420BD07B6886
:10373800254A934207D07B68244A934203D07B688A
:10374800234A934208D1FB6823F44073FB603B682B
:10375800DB68FA681343FB60FB6823F080023B6870
:103768005B691343FB607B68FA681A603B689A6878
:103778007B68DA623B681A687B689A627B680A4AE7
:10378800934203D07B680C4A934203D13B681A6981
:103798007B681A637B6801225A6100BF1437BD46F3
:1037A8005DF8047B704700BF000001400004004042
:1037B80000080040000C00400004014000400140A7
:1037C800004401400048014000180040001C00402F
:1037D8000020004080B485B000AF786039607B6815
:1037E80093F83C30012B01D102235AE07B68012277
:1037F80083F83C207B68022283F83D207B681B68A5
:103808005B68FB607B681B689B68BB60FB6823F098
:103818007003FB603B681B68FA681343FB607B68B6
:103828001B68FA685A607B681B68214A934222D059
:103838007B681B68B3F1804F1DD07B681B681D4AED
:10384800934218D07B681B681B4A934213D07B684D
:103858001B681A4A93420ED07B681B68184A934229
:1038680009D07B681B68174A934204D07B681B68A1
:10387800154A93420CD1BB6823F08003BB603B68B8
:103888005B68BA681343BB607B681B68BA689A6058
:103898007B68012283F83D207B68002283F83C2066
:1038A800002318461437BD465DF8047B704700BFF7
:1038B800000001400004004000080040000C0040E7
:1038C80000040140004001400018004070B50D4D53
:1038D8000D4C641BA4100026A64209D10B4D0C4CBC
:1038E80000F020F8641BA4100026A64205D170BD84
:1038F80055F8043B98470136EEE755F8043B9847DE
:103908000136F2E7A0390008A0390008A0390008FC
:10391800A439000802440346934200D1704703F8D3
:10392800011BF9E7F8B500BFF8BC08BC9E46704714
:0C393800F8B500BFF8BC08BC9E46704704
:103944000000000002020202030302030305050251
:103954000202020202020000000000000000000057
:103964000000000000000000000000000000000053
:103974000000000000000000000000000000000043
:103984000000020200000000000000000102030425
:043994000607080911
:08399800B8D2FF7F010000001E
:0439A000AD0100086D
:0439A400890100088D
:1039A800C03F6FFBE8034B000000FF7F0080FF7FF4
:1039B8000000FF7FFFFF0000000000000000000083
:0C39C8000024F4001000000001000000CA
:0400000508001AA92C
:00000001FF
